:100000000C9465000C948D000C948D000C948D0064
:100010000C948D000C948D000C948D000C948D002C
:100020000C948D000C948D000C948D000C948D001C
:100030000C948D000C948D000C948D000C948D000C
:100040000C94EF030C948D000C94BD030C94970357
:100050000C948D000C948D000C948D000C948D00EC
:100060000C948D000C948D000000000023002600ED
:10007000290000000008000201000003040700003E
:100080000000000000000001020304050000000061
:10009000250028002B0000000000240027002A0073
:1000A000040404040404040402020202020203031E
:1000B0000303030301020408102040800102040826
:1000C0001020010204081020390411241FBECFEFB4
:1000D000D8E0DEBFCDBF22E0AEE1B1E001C01D92AD
:1000E000AD30B207E1F711E0A0E0B1E0ECEEF2E1F3
:1000F00002C005900D92AE31B107D9F710E0C5E608
:10010000D0E004C02197FE010E944B09C436D107FC
:10011000C9F70E9486040C9474090C94000090E0C6
:10012000FC01EC54FF4F249180569F4FFC018491B9
:10013000882399F090E0880F991FFC01EA56FF4F41
:10014000A591B491FC01E457FF4F859194918FB72D
:10015000F894EC91E22BEC938FBF0895AF92BF928D
:10016000CF92DF92EF92FF920F931F93CF93DF9383
:100170006C017B018B01040F151FEB015E01AE18B2
:10018000BF08C017D10759F06991D601ED91FC91D4
:100190000190F081E02DC6010995892B79F7C50101
:1001A000DF91CF911F910F91FF90EF90DF90CF9053
:1001B000BF90AF900895FC01538D448D252F30E002
:1001C000842F90E0821B930B541710F0CF96089564
:1001D00001970895FC01918D828D981761F0A28D91
:1001E000AE0FBF2FB11D5D968C91928D9F5F9F7357
:1001F000928F90E008958FEF9FEF0895FC01918D0D
:10020000828D981731F0828DE80FF11D858D90E079
:1002100008958FEF9FEF0895FC01918D228D892F16
:1002200090E0805C9F4F821B91098F7399270895FE
:1002300085E591E00E940C0121E0892B09F420E082
:10024000822F089580E090E0892B29F00E94180108
:1002500081110C9400000895FC01A48DA80FB92F02
:10026000B11DA35ABF4F2C91848D90E001968F73DE
:100270009927848FA689B7892C93A089B1898C91FD
:10028000837080648C93938D848D981306C002884C
:10029000F389E02D80818F7D80830895EF92FF9216
:1002A0000F931F93CF93DF93EC0181E0888F9B8D99
:1002B0008C8D98131AC0E889F989808185FF15C053
:1002C0009FB7F894EE89FF896083E889F989808176
:1002D0008370806480839FBF81E090E0DF91CF9145
:1002E0001F910F91FF90EF900895F62E0B8D10E067
:1002F0000F5F1F4F0F731127E02E8C8D8E110CC0D6
:100300000FB607FCFACFE889F989808185FFF5CF20
:10031000CE010E942C01F1CFEB8DEC0FFD2FF11DD2
:10032000E35AFF4FF0829FB7F8940B8FEA89FB895D
:1003300080818062CFCFCF93DF93EC01888D8823BB
:10034000B9F0AA89BB89E889F9898C9185FD03C038
:10035000808186FD0DC00FB607FCF7CF8C9185FF1D
:10036000F2CF808185FFEDCFCE010E942C01E9CF35
:10037000DF91CF910895833081F028F4813099F096
:100380008230A9F008958730A9F08830C9F0843010
:10039000B1F4809180008F7D03C0809180008F77C1
:1003A00080938000089584B58F7784BD089584B5C7
:1003B0008F7DFBCF8091B0008F778093B000089540
:1003C0008091B0008F7DF9CFCF93DF93282F30E05D
:1003D000F901EE58FF4F8491F901EC54FF4FD4918D
:1003E000F901E056FF4FC491CC23A1F081110E9486
:1003F000BB01EC2FF0E0EE0FFF1FE859FF4FA59176
:10040000B491EC91ED2381E090E009F480E0DF917C
:10041000CF91089580E090E0FACF1F93CF93DF93C0
:10042000282F30E0F901EE58FF4F8491F901EC5488
:10043000FF4FD491F901E056FF4FC491CC23A9F0AE
:10044000162F81110E94BB01EC2FF0E0EE0FFF1F71
:10045000E457FF4FA591B4918FB7F894EC91111127
:1004600008C0D095DE23DC938FBFDF91CF911F9121
:100470000895DE2BF8CF2091F2013091F3014091E5
:10048000F4015091F5012417350721F0682F822FD0
:100490000C940D0208958E50806480937C008091AE
:1004A0007A00806480937A0080917A0086FDFCCF88
:1004B000809178009091790008958230910538F00C
:1004C000880F991F880F991F05970197F1F70895D5
:1004D000CF93DF93C2EFD1E0682F8A810E940D0293
:1004E0008F89988DDF91CF910C945D0281E00C94FF
:1004F00068023FB7F89480911F0190912001A0916C
:100500002101B091220126B5A89B05C02F3F19F00B
:100510000196A11DB11D3FBFBA2FA92F982F882783
:10052000BC01CD01620F711D811D911D42E0660F5E
:10053000771F881F991F4A95D1F708958F929F9230
:10054000AF92BF92CF92DF92EF92FF924B015C018C
:100550000E9479026B017C010E9479026C197D096D
:100560008E099F09683E734081059105A8F321E03B
:10057000821A9108A108B10888EEC80E83E0D81E3F
:10058000E11CF11C81149104A104B10429F7FF902E
:10059000EF90DF90CF90BF90AF909F908F90089595
:1005A0008EBD00000DB407FEFDCF8EB508950F93EC
:1005B0001F930091F6011091F7012091F8013091FD
:1005C000F90140E052E16AE770E080E004171507A6
:1005D0002607370740F476956795579547958F5FBF
:1005E0008630A1F787E0982F906A96958095817064
:1005F0009CBD8DBD80E01F910F910C946802CF933C
:10060000C82F0E94D7028C2F0E94D0028FEF0E9429
:10061000D002C82F0E9476028C2FCF910895CF93DD
:10062000DF93C82FD62F0E94D7028C2F80620E94A2
:10063000D002C82F8D2F0E94D0020E9476028C2FEC
:10064000DF91CF910895CF930E94D70281EE0E944F
:10065000D002C82F0E9476028C2FCF910895CF929E
:10066000DF92EF92FF92CF93DF93D091FA018091C6
:10067000FB01C0E0811105C08D2FD11181E0CD2F8C
:10068000C81B0E94D70280EA0E94D002DD2321F01D
:10069000809154010E94D002C15080E0CF3FD1F739
:1006A0000E94760281E00E943B028FB7F894C090CE
:1006B0005001D0905101E0905201F09053018FBF52
:1006C0000E94D7028FEF0E94D002C82F0E947602AC
:1006D000C073F9F42FB7F8948091500190915101B3
:1006E000A0915201B09153012FBF8C199D09AE0901
:1006F000BF0980369105A105B10510F381E0809313
:10070000040280E0DF91CF91FF90EF90DF90CF90D7
:10071000089580E00E943B0260E787E00E940F039B
:1007200084FF03C00E942303ECCF81E0EBCF1F9234
:100730000F920FB60F9211242F933F934F935F9315
:100740006F937F938F939F93AF93BF93EF93FF9399
:1007500085E591E00E942C01FF91EF91BF91AF914F
:100760009F918F917F916F915F914F913F912F91C9
:100770000F900FBE0F901F9018951F920F920FB6FB
:100780000F9211242F938F939F93EF93FF93E091F8
:100790006501F09166018081E0916B01F0916C013F
:1007A00082FD1BC0908180916E018F5F8F732091BD
:1007B0006F01821741F0E0916E01F0E0EB5AFE4FBD
:1007C000958F80936E01FF91EF919F918F912F9163
:1007D0000F900FBE0F901F9018958081F4CF1F923D
:1007E0000F920FB60F9211242F933F938F939F93E5
:1007F000AF93BF938091500190915101A09152010C
:10080000B091530130911E0123E0230F2D3758F58D
:100810000196A11DB11D20931E018093500190935C
:100820005101A0935201B093530180911F01909107
:100830002001A0912101B09122010196A11DB11DBD
:1008400080931F0190932001A0932101B093220176
:10085000BF91AF919F918F913F912F910F900FBEBC
:100860000F901F90189526E8230F0296A11DB11D29
:10087000D2CFE5E5F1E01382128288EE93E0A0E0AA
:10088000B0E084839583A683B7838AE091E0918367
:10089000808385EC90E09587848784EC90E097874F
:1008A000868780EC90E0918B808B81EC90E0938B3D
:1008B000828B82EC90E0958B848B86EC90E0978B1A
:1008C000868B118E128E138E148EE2EFF1E089E08A
:1008D00090E0918380838AE090E09383828380E834
:1008E00096E9A8E9B0E084839583A683B78380E284
:1008F0008087118685E0808B85E090E0A0E0B0E005
:10090000878B908FA18FB28F13860895789484B5CA
:10091000826084BD84B5816084BD85B5826085BDFB
:1009200085B5816085BD80916E00816080936E0089
:10093000109281008091810082608093810080917B
:10094000810081608093810080918000816080932C
:1009500080008091B10084608093B1008091B000EC
:1009600081608093B00080917A00846080937A00E7
:1009700080917A00826080937A0080917A00816011
:1009800080937A0080917A00806880937A00109238
:10099000C100E0916501F091660182E08083E09101
:1009A0006101F09162011082E0916301F0916401B4
:1009B0008FEC808310926D01E0916901F0916A01E2
:1009C00086E08083E0916701F09168018081806119
:1009D0008083E0916701F091680180818860808365
:1009E000E0916701F0916801808180688083E091E7
:1009F0006701F091680180818F7D80838091F20191
:100A00009091F3012091F4013091F5018217930741
:100A100031F00E948F008091F4010E948F00CFB7C7
:100A2000F89480912301811124C0EAEAF0E08491D6
:100A3000EEEBF0E09491E82FF0E0EE0FFF1FEA56A6
:100A4000FF4FA591B491EC91E92321F461E08AE094
:100A50000E940D028AE00E948F008CB580618CBDDF
:100A60008CB580648CBD8DE00E948F008BE00E946D
:100A70008F00809123018F5F80932301CFBF80E09F
:100A80000E943B0281E00E94680265E070E080E025
:100A900090E00E949E026FE584E00E940F0386E0D2
:100AA0000E94FF0245E550E060E070E040930502DF
:100AB000509306026093070270930802682F677DC7
:100AC00086E00E940F0386E00E94FF020E94D70288
:100AD00080E50E94D00283E70E94D0020E94760245
:100AE00060E08DE10E940F0360E08CE10E940F0343
:100AF0001092FB011092FC0160E787E00E940F0357
:100B00006CE485E00E940F030E94D70282EE0E94EF
:100B1000D0020E9476020E9423036CE080E00E94D3
:100B20000F0380E00E94FF028093030281FD0DC04D
:100B3000682F62606093030280E00E940F0365E00B
:100B400070E080E090E00E949E02C09102020E944C
:100B5000D7028AE20E94D00200E011E07801C15081
:100B600030F0F70181917F010E94D002F8CF0E94FE
:100B70007602C09102020E94D70280E30E94D00256
:100B8000C15020F0F80181918F01F8CF0E947602C8
:100B90006091FA0181E10E940F0386E00E94FF024A
:100BA000682F676086E00E940F0380E00E943B028E
:100BB00080910502909106020E945D028DE10E94E3
:100BC000FF0281FF08C080910502909106020E94F9
:100BD0005D020E942303609103026E7F6093030213
:100BE00080E00E940F0382E00E94FF02E6E8F0E04E
:100BF000E49161E070E001C0660FEA95EAF7682BC6
:100C000082E00E940F030E942F0388E1682E81E09A
:100C1000782E94E2292E91E0392E20E0422E20E019
:100C2000522E85E00E94E4014C0190934F01809385
:100C30004E0183E00E94E4015C0190934D0180939A
:100C40004C0184E00E94E4016C0190934B0180937D
:100C50004A0186E00E94E4017C019093490180935F
:100C6000480187E00E94E4018C0190934701809342
:100C7000460188E00E94E401EC01909345018093D5
:100C800044018EE00E944B02909343018093420105
:100C90008FE00E944B028928A9F5F2E0F0935401FD
:100CA0009F938F937F926F9283E391E09F938F93B3
:100CB0000E945109809143018F93809142018F934B
:100CC0007F926F923F922F920E9451090E942F03B0
:100CD00066E970E080E090E00E949E028DB79EB7CA
:100CE0000C960FB6F8949EBF0FBE8DBF41145104F1
:100CF00009F497CF0E941801882309F492CF0E942B
:100D000000008FCFAB2821F421E020935401C8CFFD
:100D1000CD2811F424E0F9CF23E0EF28B1F3012B23
:100D200099F3CD2B89F310925401BACFABE0B0E028
:100D3000ECE9F6E00C9414097C013B018A01FC010A
:100D400017821682838181FFC8C1CE0101965C01A2
:100D5000F7019381F30193FD859193FF81913F0109
:100D6000882309F453C1853239F493FD859193FFAB
:100D700081913F01853229F4B70190E00E948608F5
:100D8000E7CF912C212C312CFFE1F31538F08B3279
:100D900011F190F4803209F1833229F137FC3CC023
:100DA00020ED280F2A3050F536FE20C08AE0989EAC
:100DB000200D1124922E06C08D3291F0803371F7F0
:100DC000689430F8F30193FD859193FF81913F0181
:100DD0008111DACF21C0689431F8689432F8F2CFEB
:100DE000689433F8EFCF689434F8ECCFEAE02E9EA5
:100DF000200D1124222E689435F8E4CF8E3229F488
:100E000036FC04C1689436F8DDCF8C3619F468944A
:100E100037F8D8CF8836B1F2982F9F7D955493300C
:100E2000E0F08336A1F18337C1F1833509F063C067
:100E30002801F2E04F0E511CF801C080D180692DCD
:100E400070E036FC02C06FEF7FEFC6010E947008B1
:100E50004C01689437F882010AC00C5F1F4FFFE312
:100E6000F98388248394912C6501E89437F833FE44
:100E70002DC0522C8114910471F5552009F468CFCE
:100E8000B70180E290E00E9486085A94F6CFF801FC
:100E9000808189830E5F1F4FE4CF2801F2E04F0E5F
:100EA000511CF801C080D180692D70E036FC02C071
:100EB0006FEF7FEFC6010E947B084C018201D5CF06
:100EC000B70180E290E00E9486082A942814190451
:100ED00009F0B0F7CECFF60137FC859137FE81914E
:100EE0006F01B70190E00E94860851105A94F1E01A
:100EF0008F1A9108BFCF843619F0893609F077C070
:100F0000F80137FE6BC060817181828193810C5F33
:100F10001F4FF32DFF763F2E97FF09C090958095C8
:100F2000709561957F4F8F4F9F4F689437F82AE0F7
:100F300030E0A5010E94B608C82ECA188C2C432C9C
:100F400036FE0CC0E89440F8C91440F434FE05C0E5
:100F500032FC03C0F32DFE7E4F2E892C44FE95C03B
:100F6000FE01EC0DF11D8081803309F087C0242D36
:100F7000297E422E842D8870582E43FC95C040FE59
:100F80008FC09C2C821418F42C0C922C981844FEC0
:100F900091C0B70180E390E00E94860842FE09C03C
:100FA00088E790E041FE02C088E590E0B7010E942A
:100FB0008608C91408F48AC0CA94D12C9FEFC91AB4
:100FC000D90ACA0CDB1CF60182916F01B70190E0CF
:100FD0000E948608AC14BD04B1F74FCF60817181C7
:100FE000072E000C880B990B0E5F1F4F92CFD32C4E
:100FF000E894D4F82AE030E0853739F1232D297FB1
:10100000D22E8F3601F148F48835A9F0F701868198
:1010100097812B96E2E10C943009803749F08837AC
:10102000A9F7D4FE02C06894D2F820E130E00DC0E8
:101030006894D4F8F6CF34FE03C0822F8660D82E91
:1010400020E132E002C028E030E0F801D7FE0FC016
:1010500060817181828193810C5F1F4FA5010E9485
:10106000B608C82ECA183D2CE89437F867CF6081BF
:10107000718190E080E00E5F1F4FF0CF42FC02C014
:10108000839478CF8394839475CF842D867809F4E4
:1010900071CFF6CFB70180E290E00E94860883947A
:1010A0008214C0F3512C73CF522C5818821408F4B8
:1010B0006ECFF8CF842D867809F47BCF8BE241FE8A
:1010C00080E247FC8DE2B70190E071CFB70180E389
:1010D00090E00E9486089A946CCF8FEF9FEF99CF93
:1010E000FC010590615070400110D8F780959095F3
:1010F0008E0F9F1F0895FC016150704001900110F8
:10110000D8F7809590958E0F9F1F08950F931F938A
:10111000CF93DF93182F092FEB018B8181FD09C03D
:101120001FEF0FEF812F902FDF91CF911F910F9124
:10113000089582FF14C02E813F818C819D812817E4
:1011400039073CF4E881F981CF01019699838883BE
:1011500010838E819F8101969F838E83E3CFE885E4
:10116000F985812F0995892BA1F3DACFFA01AA27F6
:10117000283051F1203181F1E8946F936E7F6E5FDA
:101180007F4F8F4F9F4FAF4FB1E03ED0B4E03CD088
:10119000670F781F891F9A1FA11D680F791F8A1F6B
:1011A000911DA11D6A0F711D811D911DA11D20D0D2
:1011B00009F468943F912AE0269F11243019305D8C
:1011C0003193DEF6CF010895462F4770405D41937D
:1011D000B3E00FD0C9F7F6CF462F4F70405D4A33CA
:1011E00018F0495D31FD4052419302D0A9F7EACF92
:1011F000B4E0A6959795879577956795BA95C9F7C1
:1012000000976105710508959B01AC010A2E0694B3
:101210005795479537952795BA95C9F7620F731F6C
:10122000841F951FA01D08952F923F924F925F92A9
:101230006F927F928F929F92AF92BF92CF92DF92E6
:10124000EF92FF920F931F93CF93DF93CDB7DEB74B
:10125000CA1BDB0B0FB6F894DEBF0FBECDBF0994DF
:101260002A88398848885F846E847D848C849B8436
:10127000AA84B984C884DF80EE80FD800C811B8144
:10128000AA81B981CE0FD11D0FB6F894DEBF0FBE73
:10129000CDBFED010895EE0FFF1F0590F491E02DF5
:1012A0000994AEE0B0E0E7E5F9E00C9422090D897D
:1012B0001E8986E08C831A8309838FEF9FE79E83C4
:1012C0008D83AE01475E5F4F6F89788DCE010196A9
:1012D0000E9496062F813885020F131FF801108295
:0C12E0002E96E4E00C943E09F894FFCF39
:1012EC00303030303100000000004E01AE00DB0029
:0E12FC009B010C01EA00FE0025303364000067
:00000001FF
