:101DE000112484B714BE982F9D7009F002D18EE0A3
:101DF000EDD0B89A20EFE22E2EE0F22E8FE0F822FE
:101E0000EF2DE06CDE2EC0E0D0E033E0C32EBB242B
:101E1000B39445E0A42EC6D0813471F4C3D0182FFA
:101E2000D9D0123811F482E005C0113811F486E0DF
:101E300001C083E0A8D0A4C0823411F484E103C0BF
:101E4000853419F485E0CED09BC0853541F4AAD005
:101E5000C82FD0E0A7D0D82BCC0FDD1F90C086357F
:101E600021F484E0BFD080E0E5CF843609F051C092
:101E700099D098D0982E96D0882E00E610E080E673
:101E8000782E790C8FD0F80181938F017E12FACFD2
:101E9000A1D0209701F5209160002093E40090915B
:101EA00061009093E50080916C008093E600809142
:101EB0006D008093E7009F7030E0392B2650310988
:101EC0003F7020936C00832F806C80936D00E092B4
:101ED0006000D0926100F5E48F1201C0FFCFFE01D7
:101EE000C7BEE89507B600FCFDCFFE01A0E6B0E056
:101EF0009C0E2D913D910901B7BEE89511243296B3
:101F00009E12F7CFFE01A7BEE89507B600FCFDCFF5
:101F100037C0843739F546D045D0982E43D05AD0B3
:101F20008E019C0E0115110519F48091E40014C076
:101F30000130110519F48091E5000EC00C30110537
:101F400019F48091E60008C00D30110519F4809154
:101F5000E70002C0F80184910F5F1F4F14D0901268
:101F6000E1CF0EC0853739F435D08EE10CD083E94E
:101F70000AD08BE05FCF813511F488E027D02AD0DA
:101F800080E101D048CF2AE030E08095089410F439
:101F9000C09802C0C09A000015D014D086952A952A
:101FA000B1F70895A89529E030E0B199FECF0AD0A5
:101FB00009D008D08894B19908942A9511F0879592
:101FC000F7CF089593E49A95F1F7089598E191BDBC
:101FD00081BD0895E7DF803219F088E0F7DFFFCF99
:101FE00084E1D1CFCF93C82FDDDFC150E9F7CF9186
:0E1FF000F1CF282E80E0EADFE6E0FF2709941B
:021FFE000206D9
:0400000300001DE0FC
:00000001FF
