:10000000E8C265C064C063C062C061C047C05FC071
:100010005EC05DC05CC05BC05AC059C058C00D0A0C
:10002000004F534343414C3D00596F752063616E4F
:100030002075706C6F616420796F757220736B65C9
:10004000746368206E6F772E0D0A0043616C6962DD
:10005000726174696F6E2073617665640D0A005475
:10006000756E696E6720636F6D706C6574652C20AA
:10007000736176696E672E2E2E0D0A0053656E64CD
:1000800020782072657065617465646C7920746F86
:100090002074756E652E2E2E0D0A000011241FBED1
:1000A000CFEDCDBF10E0A0E6B0E0E6EAF4E002C09C
:1000B00005900D92AA36B107D9F710E0AAE6B0E094
:1000C00001C01D92AD36B107E1F79BD1EAC198CFCF
:1000D0002AE08095089410F4C09802C0C09A0000ED
:1000E0003ED03DD086952A95B1F70895CF93DF9302
:1000F000FC018491EF012196882321F0E9DFFE01C4
:100100008491F9CFDF91CF910895CF93DF93CDB74D
:10011000DD27C450CDBF81E290E0E8DF81B74AE03F
:1001200050E0BE016F5F7F4F90E07DD18981D0DFCD
:100130008A81CEDF8B81CCDF8EE190E0D7DFCC5F90
:10014000CDBFDF91CF910895CF93DF93EC018991DB
:10015000882311F0BDDFFBCFDF91CF9108959CE0A4
:100160009A95F1F7089521B781BF36B5F89480E8E4
:1001700086BD16BC789480E090E0B199FECFF894EB
:10018000000000000196B19BFDCF0196B199FDCF13
:100190000196B19BFDCF7894F89440E846BD36BDFA
:1001A000789421BF65E070E02DD18C549D4197FF7C
:1001B00003C091958195910908951F93CF93DF9383
:1001C000CDB7DD27C450CDBF162F4AE050E0BE01A9
:1001D0006F5F7F4F90E027D1112311F0812F78DFDF
:1001E000898176DF8A8174DF8B8172DF8AE070DF3C
:1001F000CC5FCDBFDF91CF911F910895AF92BF9299
:10020000CF92DF92EF92FF920F931F93CF93DF93E2
:10021000CDB7DD27C550CDBF8091620090916300BE
:10022000019649F481B780936C0081B79CDF90936D
:1002300063008093620080916200909163008697D2
:1002400080389E4008F086C085E0E4E6F0E0DE01FC
:10025000119601900D928A95E1F7CE0101967C01ED
:100260006E0196E0C90ED11C21B7F701A1907F0164
:10027000B12C80916000909161008501020F111DE9
:10028000801791070CF48C0120916A0030916B006B
:10029000021713070CF4890108171907E4F4802FDB
:1002A00062DF20916200309163008217930738F477
:1002B00021B730E030936B0020936A0032C02817DA
:1002C000390730F410936100009360006CE301C0C3
:1002D0006AE2802F72DF01B710E080916000909198
:1002E00061000A191B09801791070CF48C01809199
:1002F0006A0090916B00081719070CF48C018017A5
:10030000910724F5802F2FDF209162003091630048
:100310008217930778F421B730E03093610020937F
:10032000600001BF90936300809362006EE7802FAE
:1003300044DF2DC02817390730F410936B00009369
:100340006A006EE301C06AE2802F37DFEC14FD041F
:1003500009F08ACF80916200909163008697C8F07F
:1003600081B761E22ADF80916C008F5981BF8FEFE6
:100370009FEF909363008093620010926B00109245
:100380006A008EEF90E0909361008093600081E0BE
:1003900001C080E0CB5FCDBFDF91CF911F910F9166
:1003A000FF90EF90DF90CF90BF90AF900895B89AF4
:1003B000C09A8CE790E09ADEA8DE20DF8111FDCFA5
:1003C0008AE086DE8FE590E091DE9FDE84E087BFE5
:1003D00021B7922F8FEFECEFF7E021E00C0127BF60
:1003E000E8951124ECEFF7E085E087BFE89507B6C4
:1003F00000FCFDCF8BE490E079DE89E290E076DED0
:10040000FFCFD5DF0024552704C0080E591F880FE1
:10041000991F009729F076956795B8F37105B9F79C
:10042000802D952F0895E62FF72F2E2F3F2F423046
:1004300074F0453264F4642F77271FD0805D8A33CF
:100440000CF0895D8193862F972F0097A1F710827A
:10045000822F932F00C0A82FB92FE82FF92F672FD5
:1004600071917723E1F7329704C07C916D9370838B
:100470006291AE17BF07C8F30895AA1BBB1B51E1D9
:1004800007C0AA1FBB1FA617B70710F0A61BB70B04
:10049000881F991F5A95A9F780959095BC01CD01A9
:0604A0000895F894FFCF5F
:0A04A600FE00FFFF1E0F050301001A
:1005D2001124EDEFF7E0E491EF3F09F0E1BF84B7BA
:1005E20014BE982F9D7009F002D18EE0EDD0B89A1A
:1005F20029EEE22E22E0F22E8FE0F822EF2DE06CBF
:10060200DE2EC0E0D0E033E0C32EBB24B39445E03D
:10061200A42EC6D0813471F4C3D0182FD9D0123889
:1006220011F482E005C0113811F486E001C083E0C4
:10063200A8D0A4C0823411F484E103C0853419F433
:1006420085E0CED09BC0853541F4AAD0C82FD0E03A
:10065200A7D0D82BCC0FDD1F90C0863521F484E0C3
:10066200BFD080E0E5CF843609F051C099D098D050
:10067200982E96D0882E00E610E080E6782E790C2F
:100682008FD0F80181938F017E12FACFA1D02097EB
:1006920001F5209160002093A40090916100909355
:1006A200A50080916C008093A60080916D008093DC
:1006B200A7009F7030E0392B265031093F702093FC
:1006C2006C00832F806C80936D00E0926000D0926A
:1006D2006100F5E48F1201C0FFCFFE01C7BEE895AD
:1006E20007B600FCFDCFFE01A0E6B0E09C0E2D9106
:1006F2003D910901B7BEE895112432969E12F7CFBB
:10070200FE01A7BEE89507B600FCFDCF37C08437CF
:1007120039F546D045D0982E43D05AD08E019C0E42
:100722000115110519F48091A40014C001301105BE
:1007320019F48091A5000EC00C30110519F48091B6
:10074200A60008C00D30110519F48091A70002C05F
:10075200F80184910F5F1F4F14D09012E1CF0EC0A9
:10076200853739F435D08EE10CD081E90AD088E0A2
:100772005FCF813511F488E027D02AD080E101D003
:1007820048CF2AE030E08095089410F4C09802C067
:10079200C09A000015D014D086952A95B1F7089515
:1007A200A89529E030E0B199FECF0AD009D008D04F
:1007B2008894B19908942A9511F08795F7CF0895F6
:1007C2009EE09A95F1F7089598E191BD81BD089553
:1007D200E7DF803219F088E0F7DFFFCF84E1D1CF85
:1007E200CF93C82FDDDFC150E9F7CF91F1CF282E8B
:0A07F20080E0EADFE6E0FF2709944B
:0107FD00FFFC
:0207FE000206F1
:04000003000005D222
:00000001FF
