:1005E000112484B714BE982F9D7009F002D18EE0BB
:1005F000EDD0D19A20EFE22E22E0F22E8FE0F82209
:10060000EF2DE06CDE2EC0E0D0E033E0C32EBB2443
:10061000B39445E0A42EC6D0813471F4C3D0182F12
:10062000D9D0123811F482E005C0113811F486E0F7
:1006300001C083E0A8D0A4C0823411F484E103C0D7
:10064000853419F485E0CED09BC0853541F4AAD01D
:10065000C82FD0E0A7D0D82BCC0FDD1F90C0863597
:1006600021F484E0BFD080E0E5CF843609F051C0AA
:1006700099D098D0982E96D0882E00E610E080E68B
:10068000782E790C8FD0F80181938F017E12FACFEA
:10069000A1D0209701F5209160002093A4009091B3
:1006A00061009093A50080917C008093A6008091CA
:1006B0007D008093A7009F7030E0392B2E503109C8
:1006C0003F7020937C00832F806C80937D00E092AC
:1006D0006000D0926100F5E48F1201C0FFCFFE01EF
:1006E000C7BEE89507B600FCFDCFFE01A0E6B0E06E
:1006F0009C0E2D913D910901B7BEE89511243296CB
:100700009E12F7CFFE01A7BEE89507B600FCFDCF0D
:1007100037C0843739F546D045D0982E43D05AD0CB
:100720008E019C0E0115110519F48091A40014C0CE
:100730000130110519F48091A5000EC00C3111058E
:1007400019F48091A60008C00D31110519F48091AB
:10075000A70002C0F80184910F5F1F4F14D09012C0
:10076000E1CF0EC0853739F435D08EE10CD081E968
:100770000AD08BE05FCF813511F488E027D02AD0F2
:1007800080E101D048CF2AE030E08095089410F451
:10079000D99802C0D99A000015D014D086952A9510
:1007A000B1F70895A89529E030E0CA99FECF0AD0A4
:1007B00009D008D08894CA9908942A9511F0879591
:1007C000F7CF089596E29A95F1F7089598E191BDD3
:1007D00081BD0895E7DF803219F088E0F7DFFFCFB1
:1007E00084E1D1CFCF93C82FDDDFC150E9F7CF919E
:0E07F000F1CF282E80E0EADFEEE0FF2709942B
:0207FE000206F1
:04000003000005E014
:00000001FF
