:10000000E8CE87C086C085C084C083C082C081C05E
:1000100080C07FC07EC07DC07CC07BC05FC079C017
:1000200078C02077697468204F534343414C3D208A
:100030000046696E616C204572726F723A20002032
:1000400077697468204F534343414C3D2000496E0B
:10005000697469616C204572726F723A20000D0AF2
:10006000004F534343414C3D00596F752063616E0F
:100070002075706C6F616420796F757220736B6589
:10008000746368206E6F772E0D0A0043616C69629D
:10009000726174696F6E2073617665640D0A005435
:1000A000756E696E6720636F6D706C6574652C206A
:1000B000736176696E672E2E2E0D0A0053656E648D
:1000C00020782072657065617465646C7920746F46
:1000D0002074756E652E2E2E0D0A000011241FBE91
:1000E000CFE5D2E0DEBFCDBF10E0A0E6B0E0E0E9B2
:1000F000FBE002C005900D92A437B107D9F710E0DC
:10010000A4E7B0E001C01D92A737B107E1F71CD208
:100110003DC576CF2AE08095089410F4D99802C0A6
:10012000D99A000040D03FD086952A95B1F708951E
:10013000CF93DF93FC018491EF012196882321F076
:10014000E9DFFE018491F9CFDF91CF910895CF933C
:10015000DF9300D000D0CDB7DEB781E690E0E8DFD6
:1001600081B74AE050E0BE016F5F7F4F90E0FED163
:100170008981D0DF8A81CEDF8B81CCDF8EE590E074
:10018000D7DF0F900F900F900F90DF91CF910895D0
:10019000CF93DF93EC018991882311F0BBDFFBCF74
:1001A000DF91CF9108959CE09A95F1F7089521B7DA
:1001B00081BF36B5F89480E886BD16BC789480E09F
:1001C00090E0CA99FECFF894000000000196CA9B07
:1001D000FDCF0196CA99FDCF0196CA9BFDCF7894B9
:1001E000F89440E846BD36BD789421BF65E070E0E4
:1001F000ACD18C549D4197FF03C091958195910995
:1002000008951F93CF93DF9300D000D0CDB7DEB712
:10021000162F4AE050E0BE016F5F7F4F90E0A6D1FD
:10022000112311F0812F76DF898174DF8A8172DFDB
:100230008B8170DF8AE06EDF0F900F900F900F9030
:10024000DF91CF911F910895AF92BF92CF92DF922D
:10025000EF92FF920F931F93CF93DF93CDB7DEB74B
:1002600064970FB6F894DEBF0FBECDBF80916300D8
:1002700090916400019609F041C081B780937600A7
:1002800081B795DF8C019093640080936300809127
:10029000620091E0980F90936200813079F58EE4CE
:1002A00090E046DF8DE18F938CE48F931F930F9343
:1002B0008AE690E09F938F931F9294E1F92EFF922C
:1002C0008E010F5F1F4F1F930F9364D1C80160DF32
:1002D0008FE390E02DDF81B71F928F9380E790E04E
:1002E0009F938F931F92FF921F930F9353D1C80137
:1002F0004FDF0FB6F894DEBF0FBECDBF8091630015
:1003000090916400869780389E4008F086C085E012
:10031000E5E6F0E0DE01119601900D928A95E1F795
:10032000CE0101967C016E0196E0C90ED11C21B769
:10033000F701A1907F01B12C809160009091610044
:100340008501020F111D801791070CF48C0120917B
:10035000740030917500021713070CF48901081717
:100360001907E4F4802F23DF2091630030916400AB
:100370008217930738F421B730E03093750020934B
:10038000740032C02817390730F4109361000093CD
:1003900060006CE301C06AE2802F33DF01B710E038
:1003A00080916000909161000A191B0980179107E4
:1003B0000CF48C0180917400909175000817190756
:1003C0000CF48C018017910724F5802FF0DE20912A
:1003D0006300309164008217930778F421B730E00E
:1003E000309361002093600001BF9093640080937C
:1003F00063006EE7802F05DF2EC02817390730F421
:1004000010937500009374006EE301C06AE2802FC0
:10041000F8DEEC14FD0409F08ACF0091630010911E
:10042000640006321105C8F081B761E2EADE80910E
:1004300076008F5981BF8FEF9FEF90936400809378
:10044000630010927500109274008EEF90E090930C
:1004500061008093600081E030C081E390E068DE5D
:100460008DE18F938CE48F931F930F938AE690E036
:100470009F938F931F9284E1F82EFF928E010F5F5E
:100480001F4F1F930F9386D0C80182DE82E290E057
:100490004FDE81B71F928F9380E790E09F938F93F9
:1004A0001F92FF921F930F9375D0C80171DE0FB694
:1004B000F894DEBF0FBECDBF80E064960FB6F8940F
:1004C000DEBF0FBECDBFDF91CF911F910F91FF9087
:1004D000EF90DF90CF90BF90AF900895D19AD99AC6
:1004E0008CEB90E025DE33DEAFDE8111FDCF8AE0BC
:1004F00011DE8FE990E01CDE2ADE84E087BF21B7A1
:10050000922F8FEFECEFFFE121E00C0127BFE89580
:100510001124ECEFFFE185E087BFE89507B600FC0A
:10052000FDCF8BE890E004DE89E690E001DED3E0C9
:10053000C0E58AE2EFDDC150E1F78DE0EBDD8AE056
:10054000E9DDD150A9F7FFCFC9DF0024552704C04A
:10055000080E591F880F991F009729F07695679507
:10056000B8F37105B9F7802D952F0895FB019F0110
:1005700042306CF045325CF4642F7727BCD2805D4A
:100580008A330CF0895D8193CB010097A9F7108223
:10059000C90106C2AEE0B0E0EFECF2E0CEC20D89D8
:1005A0001E898F89988D26E02C831A83098397FFF3
:1005B00002C080E090E801979E838D83AE01455E86
:1005C0005F4F698D7A8DCE01019611D04D815E818C
:1005D00057FD0AC02F813885421753070CF49A0142
:1005E000F801E20FF31F10822E96E4E0C2C2ACE0E5
:1005F000B0E0ECEFF2E093C27C016B018A01FC01F8
:1006000017821682838181FFB0C1CE0101964C0111
:10061000F7019381F60193FD859193FF81916F011D
:10062000882309F49EC1853239F493FD859193FFA7
:1006300081916F01853221F4B70190E0C1D1E8CFFB
:10064000512C312C20E02032A0F48B3269F030F4B0
:10065000803259F0833269F420612CC08D3239F038
:10066000803339F4216026C02260246023C02860D2
:1006700021C027FD27C030ED380F3A3078F426FF2F
:1006800006C0852D6AE02ED2582E530E13C0832D3E
:100690006AE028D2382E330E20620CC08E3221F44C
:1006A00026FD5FC1206406C08C3611F4206802C0AC
:1006B000883641F4F60193FD859193FF81916F0196
:1006C0008111C1CF982F9F7D9554933028F40C5FF2
:1006D0001F4FFFE3F9830DC0833631F0833771F08C
:1006E000833509F057C021C0F801808189830E5FEE
:1006F0001F4F44244394512C540114C03801F2E09C
:100700006F0E711CF801A080B18026FF03C0652D1B
:1007100070E002C06FEF7FEFC5012C8736D12C014E
:1007200083012C852F77222E16C03801F2E06F0E40
:10073000711CF801A080B18026FF03C0652D70E018
:1007400002C06FEF7FEFC5012C8714D12C012C85DF
:100750002068222E830123FC19C0832D90E04816C7
:100760005906A0F4B70180E290E02AD13A94F5CF7F
:10077000F50127FC859127FE81915F01B70190E08B
:100780001FD131103A94F1E04F1A5108411451042D
:1007900079F7DEC0843611F0893631F5F80127FF8C
:1007A00007C060817181828193810C5F1F4F08C0F7
:1007B00060817181882777FD8095982F0E5F1F4F8C
:1007C0002F76B22E97FF09C0909580957095619510
:1007D0007F4F8F4F9F4F2068B22E2AE030E0A40158
:1007E00021D1A82EA81843C0853729F42F7EB22E18
:1007F0002AE030E025C0F22FF97FBF2E8F36C1F0FE
:1008000018F4883579F0ADC0803719F0883721F0B9
:10081000A8C02F2F2061B22EB4FE0DC08B2D846096
:10082000B82E09C024FF0AC09F2F9660B92E06C0BB
:1008300028E030E005C020E130E002C020E132E0F5
:10084000F801B7FE07C060817181828193810C5FDE
:100850001F4F06C06081718180E090E00E5F1F4FE6
:10086000A401E0D0A82EA818FB2DFF77BF2EB6FE5E
:100870000BC02B2D2E7FA51450F4B4FE0AC0B2FC81
:1008800008C02B2D2E7E05C07A2C2B2D03C07A2C70
:1008900001C0752C24FF0DC0FE01EA0DF11D808101
:1008A000803311F4297E09C022FF06C0739473942B
:1008B00004C0822F867809F0739423FD12C020FFB4
:1008C00006C05A2C731418F4530C5718732C731455
:1008D00060F4B70180E290E02C8772D073942C858D
:1008E000F6CF731410F4371801C0312C24FF11C057
:1008F000B70180E390E02C8763D02C8522FF16C0DF
:1009000021FF03C088E590E002C088E790E0B701CE
:100910000CC0822F867851F021FD02C080E201C018
:100920008BE227FD8DE2B70190E04AD0A51430F4A8
:10093000B70180E390E044D05A94F8CFAA94F40130
:10094000EA0DF11D8081B70190E03AD0A110F6CFF9
:10095000332009F45DCEB70180E290E031D03A94C3
:10096000F7CFF7018681978102C08FEF9FEF2C961A
:10097000E2E1F1C0FC010590615070400110D8F730
:10098000809590958E0F9F1F0895FC0161507040D7
:1009900001900110D8F7809590958E0F9F1F0895B4
:1009A000DC01FC01672F71917723E1F7329704C0D6
:1009B0007C916D9370836291AE17BF07C8F3089561
:1009C0000F931F93CF93DF93182F092FEB018B8188
:1009D00081FD03C08FEF9FEF20C082FF10C04E81CA
:1009E0005F812C813D81421753077CF4E881F981B6
:1009F0009F012F5F3F4F39832883108306C0E8850E
:100A0000F985812F0995892B29F72E813F812F5F49
:100A10003F4F3F832E83812F902FDF91CF911F91E6
:100A20000F910895FA01AA27283061F1203191F140
:100A3000E8946F936E7F6E5F7F4F8F4F9F4FAF4FE6
:100A4000B1E040D0B4E03ED0670F781F891F9A1FF5
:100A5000A11D680F791F8A1F911DA11D6A0F711DAD
:100A6000811D911DA11D22D009F468943F91062E8D
:100A7000000C3019000C000C3019305D3193CEF6AB
:100A8000CF010895462F4770405D4193B3E00FD0EA
:100A9000C9F7F6CF462F4F70405D4A3318F0495DD5
:100AA00031FD4052419302D0A9F7EACFB4E0A695B8
:100AB0009795879577956795BA95C9F700976105DA
:100AC000710508959B01AC010A2E06945795479530
:100AD00037952795BA95C9F7620F731F841F951F25
:100AE000A01D0895002480FD060E660F11F0869566
:100AF000D1F7802D0895AA1BBB1B51E107C0AA1F87
:100B0000BB1FA617B70710F0A61BB70B881F991FAE
:100B10005A95A9F780959095BC01CD0108952F9223
:100B20003F924F925F926F927F928F929F92AF927D
:100B3000BF92CF92DF92EF92FF920F931F93CF93CA
:100B4000DF93CDB7DEB7CA1BDB0B0FB6F894DEBF61
:100B50000FBECDBF09942A88398848885F846E8487
:100B60007D848C849B84AA84B984C884DF80EE80D1
:100B7000FD800C811B81AA81B981CE0FD11D0FB6DA
:100B8000F894DEBF0FBECDBFED010895F894FFCFFE
:100B9000FE0001FFFF1E0F05030125642F256400E1
:040BA00025640A00BE
:101DD2001124EDEFFFE1E491EF3F09F0E1BF84B799
:101DE20014BE982F9D7009F002D18EE0EDD0D19AE9
:101DF20029EEE22E2EE0F22E8FE0F822EF2DE06C9B
:101E0200DE2EC0E0D0E033E0C32EBB24B39445E025
:101E1200A42EC6D0813471F4C3D0182FD9D0123871
:101E220011F482E005C0113811F486E001C083E0AC
:101E3200A8D0A4C0823411F484E103C0853419F41B
:101E420085E0CED09BC0853541F4AAD0C82FD0E022
:101E5200A7D0D82BCC0FDD1F90C0863521F484E0AB
:101E6200BFD080E0E5CF843609F051C099D098D038
:101E7200982E96D0882E00E610E080E6782E790C17
:101E82008FD0F80181938F017E12FACFA1D02097D3
:101E920001F5209160002093E400909161009093FD
:101EA200E50080917C008093E60080917D00809324
:101EB200E7009F7030E0392B2E5031093F7020939C
:101EC2007C00832F806C80937D00E0926000D09232
:101ED2006100F5E48F1201C0FFCFFE01C7BEE89595
:101EE20007B600FCFDCFFE01A0E6B0E09C0E2D91EE
:101EF2003D910901B7BEE895112432969E12F7CFA3
:101F0200FE01A7BEE89507B600FCFDCF37C08437B7
:101F120039F546D045D0982E43D05AD08E019C0E2A
:101F22000115110519F48091E40014C00130110566
:101F320019F48091E5000EC00C31110519F480915D
:101F4200E60008C00D31110519F48091E70002C0C6
:101F5200F80184910F5F1F4F14D09012E1CF0EC091
:101F6200853739F435D08EE10CD083E90AD08CE084
:101F72005FCF813511F488E027D02AD080E101D0EB
:101F820048CF2AE030E08095089410F4D99802C036
:101F9200D99A000015D014D086952A95B1F70895E4
:101FA200A89529E030E0CA99FECF0AD009D008D01E
:101FB2008894CA9908942A9511F08795F7CF0895C5
:101FC2009EE09A95F1F7089598E191BD81BD08953B
:101FD200E7DF803219F088E0F7DFFFCF84E1D1CF6D
:101FE200CF93C82FDDDFC150E9F7CF91F1CF282E73
:0A1FF20080E0EADFEEE0FF2709942B
:011FFD00FFE4
:021FFE000206D9
:0400000300001DD20A
:00000001FF
